:020000040000FA
:0400000002EF11F00A
:100800000025202C200D0A0020432C200D0A002555
:10081000642020002E256420002E256400002B502B
:10082000800B346E2B502B24366E2AAE1AEF04F058
:100830001CEF04F01DEF04F036803650D8B423EFDF
:1008400004F025EF04F03AEF04F03628D8A42BEF9B
:1008500004F02DEF04F035EF04F0000E286E000ECA
:10086000296E000E2A6E000E2B6E2A8E000E2B6E45
:1008700042EF04F0000E286E000E296E000E2A6E64
:10088000000E2B6E2F50800B356E34503518D8B4B7
:100890004CEF04F04EEF04F04FEF04F0348C2F5087
:1008A0002F24356E2EAE57EF04F059EF04F05AEFB7
:1008B00004F035803550D8B460EF04F062EF04F0F6
:1008C00077EF04F03528D8A468EF04F06AEF04F05D
:1008D00072EF04F0000E2C6E000E2D6E000E2E6EC8
:1008E000000E2F6E2E8E000E2F6E7FEF04F0000E86
:1008F0002C6E000E2D6E000E2E6E000E2F6E3650DA
:10090000355CD8B086EF04F088EF04F0AFEF04F068
:1009100034AC8DEF04F08FEF04F091EF04F0800E13
:10092000341A36C037F035C036F037C035F028C03D
:1009300037F02CC028F037C02CF029C037F02DC07C
:1009400029F037C02DF02AC037F02EC02AF037C06A
:100950002EF02BC037F02FC02BF037C02FF0000E39
:10096000376E365035C030F0316A305E000E315A85
:1009700031BEC4EF04F0315009E11A0E305CD8A04A
:10098000C4EF04F0C6EF04F0FDEF04F02850291086
:100990002A102B10D8A4CFEF04F0D2EF04F0010EF0
:1009A000D3EF04F0000E376E000E286E000E296E95
:1009B000000E2A6E000E2B6E35C036F006EF05F0E5
:1009C00037A0E5EF04F0E7EF04F0EDEF04F0D89086
:1009D00037300109376EEFEF04F0D890373228A096
:1009E000F4EF04F0F6EF04F0F7EF04F0378E2B3459
:1009F0002B322A3229322832362A3550365CD8A09A
:100A000004EF05F006EF05F0E0EF04F034BC0BEF67
:100A100005F00DEF05F04DEF05F03650D8A413EFBB
:100A200005F015EF05F01FEF05F0000E286E000E23
:100A3000296E000E2A6E000E2B6E6EEF06F02C5003
:100A400028262D5029222E502A222F502B222BA02F
:100A50002CEF05F02EEF05F0DAEF05F037A033EFBD
:100A600005F035EF05F03BEF05F0D8903730010980
:100A7000376E3DEF05F0D890373228A042EF05F0F1
:100A800044EF05F045EF05F0378E2B342B322A3238
:100A900029322832362ADAEF05F02C50285C2D5006
:100AA00029582E502A582B50800A306E2F50800A19
:100AB0003058D8B05EEF05F060EF05F08BEF05F031
:100AC00028502C5C306E29502D58316E2A502E58EB
:100AD000326E2B502F58336EFF0E3024286EFF0ECF
:100AE0003120296EFF0E32202A6EFF0E33202B6E2E
:100AF000800E341A376C3750D8A481EF05F083EF9D
:100B000005F093EF05F0010E2826000E29222A2277
:100B10002B2293EF05F02C50285E2D50295A2E5091
:100B20002A5A2F502B5A285029102A102B10D8A49B
:100B30009CEF05F09EEF05F0D3EF05F03750D8A4F9
:100B4000A4EF05F0A6EF05F0D3EF05F0000E286E38
:100B5000000E296E000E2A6E000E2B6E6EEF06F050
:100B6000D890283629362A362B3637AEBAEF05F01C
:100B7000BCEF05F0BDEF05F0288037A0C2EF05F00F
:100B8000C4EF05F0C8EF05F0D8803736CAEF05F09E
:100B9000D89037363650D8B4D0EF05F0D2EF05F004
:100BA000D3EF05F036062AAED8EF05F0DAEF05F000
:100BB000B0EF05F0000E356E37AEE1EF05F0E3EF74
:100BC00005F0FBEF05F037C030F07F0E3016D8B4DB
:100BD000ECEF05F0EEEF05F0F2EF05F0010E356EEB
:100BE000FBEF05F028A0F7EF05F0F9EF05F0FBEFBC
:100BF00005F0EEEF05F03550D8B401EF06F003EF45
:100C000006F02EEF06F0010E2826000E29222A22D9
:100C10002B222BA00EEF06F010EF06F02EEF06F0C1
:100C200028C030F029C031F02AC032F02BC033F098
:100C30003334333232323132303230C028F031C0C6
:100C400029F032C02AF033C02BF03628D8B42BEF6D
:100C500006F02DEF06F02EEF06F0362A3628D8B42F
:100C600034EF06F036EF06F03EEF06F03650D8A42B
:100C70003CEF06F03EEF06F050EF06F0000E286E57
:100C8000000E296E000E2A6E000E2B6E3650D8A470
:100C90004CEF06F04EEF06F050EF06F0000E346E0B
:100CA00036A055EF06F057EF06F05AEF06F02A8E01
:100CB0005BEF06F02A9ED89036302B6E34AE63EF91
:100CC00006F065EF06F066EF06F02B8E28C028F0E0
:100CD00029C029F02AC02AF02BC02BF01200125094
:100CE000800B1F6E12501224266E11AE7AEF06F0A2
:100CF0007CEF06F07DEF06F026802650D8B483EF17
:100D000006F085EF06F09AEF06F02628D8A48BEFC0
:100D100006F08DEF06F095EF06F0000E0F6E000E58
:100D2000106E000E116E000E126E118E000E126EFD
:100D3000A2EF06F0000E0F6E000E106E000E116E88
:100D4000000E126E1650800B1F1A16501624276EB6
:100D500015AEADEF06F0AFEF06F0B0EF06F027806E
:100D60002750D8B4B6EF06F0B8EF06F0CDEF06F096
:100D70002728D8A4BEEF06F0C0EF06F0C8EF06F0B3
:100D8000000E136E000E146E000E156E000E166E21
:100D9000158E000E166ED5EF06F0000E136E000EC7
:100DA000146E000E156E000E166E135014101510F2
:100DB0001610D8A4DEEF06F0E0EF06F0F8EF06F02C
:100DC000000E0F6E000E106E000E116E000E126EF1
:100DD000800E11127F0E12121F5012120FC00FF050
:100DE00010C010F011C011F012C012F03BEF08F06B
:100DF0002650D8A4FEEF06F000EF07F00AEF07F048
:100E0000000E0F6E000E106E000E116E000E126EB0
:100E10003BEF08F0275026C017F0186A175E000E47
:100E2000185A7F0E1724206E000E1820216E0FC056
:100E30001BF010C01CF011C01DF012C01EF0000EFF
:100E40000F6E000E106E000E116E000E126E000E70
:100E5000226E000E236E000E246E000E256E000E14
:100E6000276E6BEF07F02750D8B439EF07F03BEF50
:100E700007F052EF07F0D8901B361C361D361E3691
:100E8000D8900F3610361136123625AE4AEF07F0DD
:100E90004CEF07F04DEF07F00F80D8902236233645
:100EA0002436253613501B5C14501C5815501D5801
:100EB00016501E58D8A05FEF07F061EF07F06AEFF9
:100EC00007F0258C13501B5E14501C5A15501D5AE8
:100ED00016501E5A272A190E276471EF07F073EF78
:100EE00007F033EF07F01B501C101D101E10D8B474
:100EF0007CEF07F07EEF07F096EF07F0228096EF89
:100F000007F0D8900F3610361136123625AE8BEF1B
:100F100007F08DEF07F08EEF07F00F80D8902236A4
:100F20002336243625362006D8A0210611AE9BEFA5
:100F300007F09DEF07F081EF07F0000E276E25AE5A
:100F4000A4EF07F0A6EF07F0CAEF07F0FF0E221498
:100F5000176EFF0E2314186EFF0E2414196E7F0EE9
:100F600025141A6E1750181019101A10D8B4BBEFA8
:100F700007F0BDEF07F0C1EF07F0010E276ECAEFD3
:100F800007F00FA0C6EF07F0C8EF07F0CAEF07F0B1
:100F9000BDEF07F02750D8B4D0EF07F0D2EF07F03D
:100FA000F6EF07F0010E0F26000E1022112212227A
:100FB00012A0DDEF07F0DFEF07F0F6EF07F00FC04C
:100FC00017F010C018F011C019F012C01AF01A343E
:100FD0001A3219321832173217C00FF018C010F039
:100FE00019C011F01AC012F0204A212A21BE01EFC7
:100FF00008F0215008E12028D8A001EF08F003EF05
:1010000008F00EEF08F0000E216E2068000E0F6E43
:10101000000E106E000E116E000E126E21BE1BEF40
:1010200008F0215006E12004D8B019EF08F01BEFBA
:1010300008F029EF08F0000E216E000E206E000E61
:101040000F6E000E106E000E116E000E126E000E6E
:101050001F6E20C026F026A030EF08F032EF08F017
:1010600035EF08F0118E36EF08F0119ED89026303B
:10107000126EECEF06F012001EC034F01FC035F007
:1010800020C036F021C037F022C038F023C039F03C
:1010900024C03AF025C03BF03BBE51EF08F054EFBE
:1010A00008F0010E55EF08F0000E3E6E3E50D8B429
:1010B0005CEF08F05EEF08F06EEF08F03B1E3A1EA2
:1010C000391E381E371E361E351E346C000E352272
:1010D00036223722382239223A223B22000163BFCE
:1010E0007CEF08F0635106E16205D8B07AEF08F0B2
:1010F0007CEF08F082EF08F0000E316E010E306ECA
:1011000086EF08F062C030F063C031F060C032F0AA
:1011100061C033F03E50D8B490EF08F092EF08F081
:10112000A9EF08F03206D8A033063E50D8A49BEFB2
:1011300008F09DEF08F0A3EF08F0000E2F6E2B0EC5
:101140002E6EA7EF08F0000E2F6E2D0E2E6E2EC005
:101150003EF0000E3D6E1F0E3C6E000EB56F2DEF83
:1011600009F03C06D8A03D06960E3C24D96E000E30
:101170003D20DA6E34C001F035C002F036C003F015
:1011800037C004F038C005F039C006F03AC007F0A7
:101190003BC008F00A0E096E000E0A6E000E0B6EC0
:1011A000000E0C6E000E0D6E000E0E6E000E0F6E19
:1011B000000E106E50EC0CF001C026F002C027F0BB
:1011C00003C028F004C029F005C02AF006C02BF0A7
:1011D00007C02CF008C02DF026C013F027C014F073
:1011E0000BEC10F01350300FDF6E3006D8A0310634
:1011F0003206D8A0330634C001F035C002F036C044
:1012000003F037C004F038C005F039C006F03AC02A
:1012100007F03BC008F00A0E096E000E0A6E000EC1
:101220000B6E000E0C6E000E0D6E000E0E6E000E9C
:101230000F6E000E106E8CEC0BF001C034F002C08B
:1012400035F003C036F004C037F005C038F006C0F2
:1012500039F007C03AF008C03BF03DBE38EF09F066
:101260003D5008E13C04D8A038EF09F03AEF09F00E
:1012700056EF09F034503510361037103810391049
:101280003A103B10D8A447EF09F049EF09F0B1EF4D
:1012900008F031BE56EF09F0315006E13004D8B005
:1012A00054EF09F056EF09F0B1EF08F03E50D8B412
:1012B0005CEF09F05EEF09F069EF09F03C06D8A099
:1012C0003D06960E3C24D96E000E3D20DA6E3EC0DF
:1012D000DFFF1CC011F01DC012F0960E3C24136EEF
:1012E000000E3D20146E32C015F033C016F0DBEC5A
:1012F0000EF01200720ED36E9690969296EC10F04D
:101300000F0EC16E800E386E250E396E000E3A6ECD
:10131000000E3B6E91EC0EF0D6EC10F0ADEC10F040
:1013200046EC0FF00001D46F46EC0FF00001CF6FD8
:1013300046EC0FF00001D56F46EC0FF00001D06FC6
:1013400046EC0FF00001D16FD5C0D2F01E0ED26571
:10135000ACEF09F0AEEF09F0BEEF09F08D80150E8D
:101360000001C46F4B0EC36FBE0EE82EFED7C32F15
:10137000FCD7C42FFAD700F0BFEF09F08D90150EFF
:101380000001C46F4B0EC36FBE0EE82EFED7C32FF5
:10139000FCD7C42FFAD700F0D4C0D3F0320E00012E
:1013A000D361D5EF09F0D7EF09F0E7EF09F08D82AF
:1013B000150E0001C46F4B0EC36FBE0EE82EFED794
:1013C000C32FFCD7C42FFAD700F0E8EF09F08D92B5
:1013D000150E0001C46F4B0EC36FBE0EE82EFED774
:1013E000C32FFCD7C42FFAD700F0C50E596E000EDC
:1013F0005A6E1A0E5B6E080E5C6ED4C05DF05E6AAB
:1014000074EC0FF0640E056E000E066EC50E076ECE
:10141000000E086E18EC0FF0000E0A6EC50E0B6E73
:10142000000E0C6E000E2BEC10F0C50E596E000E67
:101430005A6E140E5B6E080E5C6ECFC05DF05E6A75
:1014400074EC0FF0640E0F6E000E106EC50E116E70
:10145000000E126EC3EC10F0640E0F6E000E106ED4
:10146000010E116E080E126EC3EC10F0C50E086E60
:10147000000E096E7EEC10F0250EE6EC10F0640E06
:10148000026E000E036E66EC10F0C50E596E000E73
:101490005A6E1A0E5B6E080E5C6ED5C05DF05E6A09
:1014A00074EC0FF0640E056E000E066EC50E076E2E
:1014B000000E086E18EC0FF0000E0A6EC50E0B6ED3
:1014C000000E0C6E010E2BEC10F0C50E596E000EC6
:1014D0005A6E190E5B6E080E5C6ED0C05DF05E6ACF
:1014E00074EC0FF0640E0F6E000E106EC50E116ED0
:1014F000000E126EC3EC10F0640E0F6E000E106E34
:10150000080E116E080E126EC3EC10F0C50E086EB8
:10151000000E096E7EEC10F0DF0EE6EC10F0430ECC
:10152000E6EC10F0640E026E000E036E66EC10F036
:10153000C50E596E000E5A6E0F0E5B6E080E5C6E75
:10154000D1C05DF05E6A74EC0FF0080E0A6EC50E35
:101550000B6E000E0C6E010E2BEC10F08CEF09F0F0
:1015600000EF00F0096E0950D8B4B9EF0AF0BBEFF4
:101570000AF0DDEF0AF004BEC2EF0AF0C0EF0AF095
:10158000DDEF0AF001C005F002C006F003C007F06D
:1015900004C008F0051E061E071E081E052A000EC0
:1015A00006220722082205C00BF006C00CF007C077
:1015B0000DF008C00EF0E5EF0AF001C00BF002C01C
:1015C0000CF003C00DF004C00EF001500210031027
:1015D0000410D8A4EEEF0AF0F0EF0AF0FAEF0AF0E8
:1015E000000E016E000E026E000E036E000E046E01
:1015F0008BEF0BF0960E0A6E04EF0BF00A2AD890D0
:101600000E320D320C320B32000E0B14056E000E32
:101610000C14066E000E0D14076EFE0E0E14086EEE
:101620000550061007100810D8A419EF0BF01BEF97
:101630000BF0FEEF0AF029EF0BF00A2A010E0B2641
:10164000000E0C220D220E22D8900E320D320C32DA
:101650000B32000E0B14056E000E0C14066E000EFD
:101660000D14076EFF0E0E14086E055006100710BD
:101670000810D8A43EEF0BF040EF0BF01DEF0BF07D
:1016800048EF0BF00A06D8900B360C360D360E36A6
:101690000DBE4DEF0BF04FEF0BF057EF0BF0020EBE
:1016A0000A6055EF0BF057EF0BF042EF0BF00AB06A
:1016B0005CEF0BF05EEF0BF05FEF0BF00D9ED89040
:1016C0000A320AC005F0066A076A086A05C008F00F
:1016D000076A066A056A05500B1206500C1207507D
:1016E0000D1208500E120950D8B479EF0BF07BEFB1
:1016F0000BF083EF0BF004BE82EF0BF080EF0BF0EA
:1017000083EF0BF00E8E0BC001F00CC002F00DC089
:1017100003F00EC004F01200000E126E10BE95EF22
:101720000BF093EF0BF0A7EF0BF0101E0F1E0E1E29
:101730000D1E0C1E0B1E0A1E096C000E0A220B2227
:101740000C220D220E220F221022010E126E08BE54
:10175000AEEF0BF0ACEF0BF0C0EF0BF0081E071E66
:10176000061E051E041E031E021E016C000E022230
:10177000032204220522062207220822010E121A41
:1017800020EE13F0070EDE6AE806FDE209500A10AB
:101790000B100C100D100E100F101010D8B4D3EF4A
:1017A0000BF0D5EF0BF027EF0CF0010E116EE3EF0D
:1017B0000BF0D89009360A360B360C360D360E363D
:1017C0000F361036112A10AEE8EF0BF0EAEF0BF0EF
:1017D000D9EF0BF0D8901336143615361636173667
:1017E000183619361A360950015C0A5002580B5047
:1017F00003580C5004580D5005580E5006580F5001
:10180000075810500858D8A008EF0CF00AEF0CF059
:101810001BEF0CF00950015E0A50025A0B50035A9C
:101820000C50045A0D50055A0E50065A0F50075AC4
:101830001050085A1380D89010320F320E320D32E9
:101840000C320B320A320932112EEAEF0BF0125031
:10185000D8B42DEF0CF02FEF0CF03FEF0CF01A1E68
:10186000191E181E171E161E151E141E136C000EB0
:101870001422152216221722182219221A2213C006
:1018800001F014C002F015C003F016C004F017C038
:1018900005F018C006F019C007F01AC008F01200D1
:1018A000000E126E08BE59EF0CF057EF0CF06BEF04
:1018B0000CF0081E071E061E051E041E031E021E37
:1018C000016C000E022203220422052206220722B6
:1018D0000822010E126E10BE72EF0CF070EF0CF0C9
:1018E00082EF0CF0101E0F1E0E1E0D1E0C1E0B1E86
:1018F0000A1E096C000E0A220B220C220D220E2257
:101900000F22102209500A100B100C100D100E108F
:101910000F101010D8B48FEF0CF091EF0CF0D9EF3E
:101920000CF0010E116E9FEF0CF0D89009360A36BC
:101930000B360C360D360E360F361036112A10AE19
:10194000A4EF0CF0A6EF0CF095EF0CF00950015C41
:101950000A5002580B5003580C5004580D500558AB
:101960000E5006580F50075810500858D8A0BBEF1B
:101970000CF0BDEF0CF0CDEF0CF00950015E0A50F9
:10198000025A0B50035A0C50045A0D50055A0E506F
:10199000065A0F50075A1050085AD89010320F327A
:1019A0000E320D320C320B320A320932112EA6EFF2
:1019B0000CF01250D8B4DFEF0CF0E1EF0CF0F1EFC7
:1019C0000CF0081E071E061E051E041E031E021E26
:1019D000016C000E022203220422052206220722A5
:1019E000082201C001F002C002F003C003F004C0ED
:1019F00004F005C005F006C006F007C007F008C0F7
:101A000008F0120041C0D9FF42C0DAFFDECFF6FF76
:101A1000DDCFF7FF0800F550250AD8A412EF0DF02E
:101A200014EF0DF094EF0DF041C0D9FF42C0DAFF82
:101A3000DE2A000EDD22000E0001616F000E606FD5
:101A400060C05FF06269636941C0D9FF42C0DAFFDC
:101A5000DECF4FF0DDCF50F04FC0F6FF50C0F7FFA4
:101A60000800F550640AD8B438EF0DF03AEF0DF0E5
:101A700048EF0DF04FC0F6FF50C0F7FF0800F550DB
:101A8000690AD8A446EF0DF048EF0DF08BEF0DF08A
:101A900043C0D9FF44C0DAFFDFCF45F0020EDE2697
:101AA000DFCF46F0000EDD2245C0D9FF46C0DAFF89
:101AB000DECF47F0DDCF48F0000E48BEFF0E496E86
:101AC0004A6E4B6E4C6E4D6E4E6E010E4F24456E3F
:101AD000000E5020466E41C0D9FF42C0DAFF45C01B
:101AE000DEFF46C0DDFF3FC01CF040C01DF047C018
:101AF0001EF048C01FF049C020F04AC021F04BC082
:101B000022F04CC023F04DC024F04EC025F03CEC38
:101B100008F0A8EF0DF041C0D9FF42C0DAFFDE2A7D
:101B2000000EDD22A8EF0DF041C0D9FF42C0DAFF60
:101B3000DECFF6FFDDCFF7FF0800F550016E026A39
:101B40003FC003F040C004F02CEC0EF08BEF0DF022
:101B50001200033404340A6E0A50D8A4B2EF0DF018
:101B6000B4EF0DF0BEEF0DF0000E016E000E026E30
:101B7000000E036E000E046E2BEF0EF001C005F098
:101B800002C006F003C007F004C008F0200ECEEF3C
:101B90000DF0D8900832073206320532E82EC9EF30
:101BA0000DF00550096E038EFF0E0116FF0E021692
:101BB000FF0E0316000E0416960E0A5E0ABEE5EF2F
:101BC0000DF0E3EF0DF0FBEF0DF00A50800A970FD8
:101BD000D8B0EDEF0DF0EFEF0DF0F1EF0DF0B4EF49
:101BE0000DF0D89004320332023201320A3EF1EF96
:101BF0000DF013EF0EF01F0E0A6401EF0EF003EF6D
:101C00000EF00BEF0EF0B4EF0DF0D8900136023667
:101C1000033604360A060A50D8A411EF0EF013EF6B
:101C20000EF005EF0EF00950D8B419EF0EF01BEFCF
:101C30000EF023EF0EF0041E031E021E016C000EB8
:101C400002220322042201C001F002C002F003C0FC
:101C500003F004C004F0120003500410D8B433EFB2
:101C60000EF035EF0EF03EEF0EF003500410D8A446
:101C70003CEF0EF03EEF0EF043EF0EF0015019EC8A
:101C800011F090EF0EF020EE09F00350D926045029
:101C9000DA22DE50DE10D8B450EF0EF052EF0EF024
:101CA0006DEF0EF020EE09F00350D9260450DA2231
:101CB00010EE03F00350E1260450E222DE50E65C11
:101CC000E650800A096EDE50800A0958D8B06BEFE2
:101CD0000EF06DEF0EF090EF0EF020EE03F00350DB
:101CE000D9260450DA22DECF05F0DDCF06F003C09E
:101CF000D9FF04C0DAFFDECF07F0DDCF08F00550D2
:101D00000724D96E06500820DA6E01C0DFFF20EEEE
:101D100003F00350D9260450DA22DE2A000EDD2219
:101D20001200949C948E38C001F039C002F03AC081
:101D300003F03BC004F0010EB2EC0AF001C013F056
:101D400002C014F003C015F004C016F0000E0F6EB0
:101D5000240E106EF40E116E470E126E6FEC06F02C
:101D60000FC028F010C029F011C02AF012C02BF0CB
:101D7000000E2C6E000E2D6E800E2E6EBF0E2F6E7E
:101D80000FEC04F028C03CF029C03DF02AC03EF022
:101D90002BC03FF03CC001F03DC002F03EC003F05C
:101DA0003FC004F0A9EC0DF00150AF6E200EAC6EF8
:101DB000900EAB6E120016BEE0EF0EF0E2EF0EF0EA
:101DC000E8EF0EF015C01AF016C01BF0ECEF0EF0A5
:101DD000000E1B6E000E1A6E000E196E000E186EAD
:101DE000FEEF0EF0000E026E200E016E11C003F029
:101DF00012C004F02CEC0EF0184A192A1A50185C84
:101E00001950800A176E1B50800A1758D8A00BEF84
:101E10000FF00DEF0FF0F2EF0EF013C00AF014C048
:101E20000BF011C00CF012C00DF0E9EC0FF0120035
:101E300007C00BF008C00CF005C00DF006C00EF096
:101E40000B50096E0C500A6E0B4A0C2A09C0F6FFA3
:101E50000AC0F7FFF86A0DC0D9FF0EC0DAFF0D4ABD
:101E60000E2A070EF76403D00800F55005D0F6CF10
:101E7000E1FFF7CFE2FFE750DF6EDF50D8A443EF7A
:101E80000FF045EF0FF020EF0FF01200000E026E82
:101E9000000E016E80A04FEF0FF051EF0FF04AEFF0
:101EA0000FF0140EE82EFED780A059EF0FF05BEF75
:101EB0000FF05FEF0FF0D880023662EF0FF00250A4
:101EC0000224026E80B067EF0FF069EF0FF062EF4F
:101ED0000FF0012A070E016470EF0FF072EF0FF0A0
:101EE0004AEF0FF0025012005D0E0001B66F000EB7
:101EF000B76F59C0B8F05AC0B9F0000EBC6F000EF1
:101F0000BB6F000EC26F000EC16FB80E516E000E97
:101F1000526E5BC053F05CC054F0B60E556E000EAE
:101F2000566E9DEC0FF00001BB515924D96EBC5187
:101F30005A20DA6E000EDF6E120053C057F054C004
:101F400058F0B1EF0FF051C03FF052C040F0570EC3
:101F5000416E000E426E55C043F056C044F002EC94
:101F60000DF057C0F6FF58C0F7FF0800F550000904
:101F7000D8A4BDEF0FF0BFEF0FF0A3EF0FF0000EEE
:101F8000526E000E516E1200000E046E000E036EB3
:101F9000DDEF0FF0000E066E000E056E054A062AF4
:101FA000065009E1510E055CD8A0D9EF0FF0DBEF28
:101FB0000FF0CEEF0FF0034A042A0350015C0450E7
:101FC0000258D8B0E6EF0FF0E8EF0FF0CAEF0FF0CD
:101FD0001200000E106E000E0F6EFAEF0FF00EC022
:101FE00001F0026A0CC003F00DC004F02CEC0EF0FE
:101FF0000F4A102A0F500A24D96E10500B20DA6EA7
:10200000DF500E6E0E50D8A408EF10F00AEF10F05B
:10201000EFEF0FF0120014BE18EF10F0145006E1AD
:102020001304D8B016EF10F018EF10F026EF10F0F0
:1020300013C015F014C016F0151E161E154A162AE8
:1020400015C013F016C014F02AEF10F013C013F0EF
:1020500014C014F012000D6E0D50D8A432EF10F021
:1020600034EF10F03DEF10F00A500F0B80090E6EA8
:102070000E50F4EC10F044EF10F00A500F0BC009B2
:102080000E6E0E50F4EC10F00BC008F00CC009F00E
:102090007EEC10F0120001C003F002C004F053EF18
:1020A00010F0014A022A01C0D9FF02C0DAFFDF5056
:1020B000D8A45DEF10F05FEF10F051EF10F0035077
:1020C000015C016E04500258026E120071EF10F0B4
:1020D00002C0D9FF03C0DAFFDF500EEC11F0024A54
:1020E000032A02C0D9FF03C0DAFFDF50D8A47BEF78
:1020F00010F07DEF10F068EF10F0120089EF10F093
:1021000008C0D9FF09C0DAFFDF50E6EC10F0084A3A
:10211000092A08C0D9FF09C0DAFFDF50D8A493EF1D
:1021200010F095EF10F080EF10F01200000E956E99
:10213000000E936E000E026E140E016EC4EC0FF0D2
:10214000380EF4EC10F0010EF4EC10F00C0EF4EC80
:1021500010F0060EF4EC10F0120080B0B2EF10F0A8
:10216000B4EF10F0ADEF10F080A0B9EF10F0BBEFBE
:1021700010F0B4EF10F080B0C0EF10F0C2EF10F02C
:10218000BBEF10F012000FC001F010C002F04BECDA
:1021900010F001500F24056E02501020066E11C081
:1021A00007F012C008F018EC0FF01200929089901E
:1021B0002F0E016EC00EE82EFED7012EFCD78980AF
:1021C0000D0EE82EFED700F092801200076E07C0B9
:1021D0008AFF8C808C8200F08C92000E026E010EC1
:1021E000016EC4EC0FF01200076E07C08AFF8C90DE
:1021F0008C8200F08C92000E026E030E016EC4EC15
:102200000FF0120000EE60F0560EEE6AE806FDE1F7
:102210005F6A000EF86E00017AEF09F0016E9EA869
:1022200014EF11F016EF11F00FEF11F001C0ADFF38
:042230001200120086
:020000040020DA
:08000000FFFFFFFFFFFFFFFF00
:020000040030CA
:0E00000000091F1EFF0081FF0FC00FE00F4020
:00000001FF
